:1000000045C000004BC0000049C0000047C00000D0
:1000100045C0000043C0000041C000003FC00000D8
:100020003DC000003BC0000039C0000037C00000E8
:1000300035C0000033C0000031C000002FC00000F8
:100040002DC000002BC0000029C0000027C0000008
:1000500025C0000023C0000021C000001FC0000018
:100060001DC000001BC0000019C0000017C0000028
:1000700015C0000013C0000011C000000FC0000038
:100080000DC000000BC0000009C0000011241FBEFD
:10009000CFEFD0E4DEBFCDBF29D035C0B1CF84B122
:1000A0008FEF84B908958AB18AB90895CF93DF9309
:1000B0001F92CDB7DEB789B1881F8827881F898333
:1000C0009981892F817090FF0DC085EA9EE001978C
:1000D000F1F700C0000089B1881F8827881F898335
:1000E000898181700F90DF91CF910895D8DFDBDF98
:1000F000C1E0DCDF8823E9F385B18C2785B9D6DF41
:0A0100008111FDCFF6CFF894FFCF78
:00000001FF
