S00E00006D6163726F732E7372656391
S113000045C000004BC0000049C0000047C00000CC
S113001045C0000043C0000041C000003FC00000D4
S11300203DC000003BC0000039C0000037C00000E4
S113003035C0000033C0000031C000002FC00000F4
S11300402DC000002BC0000029C0000027C0000004
S113005025C0000023C0000021C000001FC0000014
S11300601DC000001BC0000019C0000017C0000024
S113007015C0000013C0000011C000000FC0000034
S11300800DC000000BC0000009C0000011241FBEF9
S1130090CFEFD0E4DEBFCDBF09D01DC0B1CF84B156
S11300A08FEF84B908958AB18AB90895CF93DF9305
S11300B01F92CDB7DEB7F3DFF6DF89B1807889838D
S11300C0898195B18695892785B989B19981807887
S10D00D08917D9F3F2CFF894FFCF9B
S9030000FC
