:1000000045C000004BC0000049C0000047C00000D0
:1000100045C0000043C0000041C000003FC00000D8
:100020003DC000003BC0000039C0000037C00000E8
:1000300035C0000033C0000031C000002FC00000F8
:100040002DC000002BC0000029C0000027C0000008
:1000500025C0000023C0000021C000001FC0000018
:100060001DC000001BC0000019C0000017C0000028
:1000700015C0000013C0000011C000000FC0000038
:100080000DC000000BC0000009C0000011241FBEFD
:10009000CFEFD0E4DEBFCDBF08D01CC0B1CF84B15C
:1000A0008E6F84B985E290E00895CF93DF931F921D
:1000B000CDB7DEB7F4DFFC0181B181B980B18983AE
:1000C0009981208196959227908320B19981291753
:0800D000E1F3F4CFF894FFCF37
:00000001FF
